:020000040000FA
:100000000C9462000C948A000C948A000C948A0070
:100010000C948A000C948A000C948A000C948A0038
:100020000C948A000C948A000C948A000C948A0028
:100030000C948A000C948A000C948A000C948A0018
:100040000C9456060C948A000C94C6060C94A006D8
:100050000C948A000C948A000C948A000C948A00F8
:100060000C948A000C948A000000000024002700F1
:100070002A0000000000250028002B0000000000DE
:1000800023002600290004040404040404040202DA
:100090000202020203030303030301020408102007
:1000A0004080010204081020010204081020000012
:1000B0000008000201000003040700000000000027
:1000C0000000F80611241FBECFEFD8E0DEBFCDBF81
:1000D00012E0A0E0B1E0EEECFEE102C005900D926E
:1000E000AE31B107D9F723E0AEE1B2E001C01D9215
:1000F000AA35B207E1F710E0C2E6D0E004C02197CC
:10010000FE010E943D0FC136D107C9F70E94A10729
:100110000C94650F0C9400000F931F93CF93DF9303
:10012000C0912503E6E2F3E0CD3211F0E5E2F3E021
:100130008F0120E030E0A901D801DD918D0180ED33
:100140008D0F8A3090F4AAE0B0E00E94430F2D2F6B
:10015000DD0F330B440B550B260F371F481F591F5C
:100160002053310941095109E7CFA4E6B0E00E94CC
:10017000430FAB01BC01DF01819190ED980F9A30E4
:10018000D0F38E3259F511968C91119790ED980F0E
:100190009A3020F5082E000C990BC0972AE0289F72
:1001A0008001299F100D1124012E000C220B330B0E
:1001B000400F511F621F731F12968C9190ED980F84
:1001C0009A3060F4082E000C990BC097092E000C91
:1001D000AA0BBB0B480F591F6A1F7B1FCD3239F486
:1001E00070956095509541955F4F6F4F7F4FCB0154
:1001F000BA01DF91CF911F910F9108954F925F92B5
:100200006F927F928F929F92AF92BF92CF92DF9226
:10021000EF92FF921F93CF93DF93C5E2D3E0FE01ED
:10022000C12CD12C7601119180ED810F8A30A8F478
:10023000AAE0B0E0A70196010E94430FC12E110F62
:10024000DD08EE08FF08C60ED71EE81EF91E80E383
:10025000C81AD108E108F108E6CFC701B60124E6C3
:1002600030E040E050E00E941B0F9B01AC0160EACF
:1002700076E881E090E00E940B0F4B015C019E014B
:10028000899190ED980F9A30D0F38E3221F5E901E3
:10029000219680E1482E87E2582E612C712CA9917D
:1002A00080ED8A0F8A30B8F40A2E000CBB0BD09771
:1002B000A30192010E944E0F860E971EA81EB91E22
:1002C000C301B2012AE030E040E050E00E941B0F81
:1002D00029013A01E4CFC701B60124E630E040E04D
:1002E00050E00E941B0F60E472E48FE090E00E94F7
:1002F0000B0F6B017C01C501B4016D5F7F4F8F4F08
:100300009F4F26E030E040E050E00E941B0FC70105
:10031000B601620F731F841F951FDF91CF911F914C
:10032000FF90EF90DF90CF90BF90AF909F908F9015
:100330007F906F905F904F900895833081F028F404
:10034000813099F08230A9F008958730A9F0883083
:10035000C9F08430B1F4809180008F7D03C080911A
:1003600080008F7780938000089584B58F7784BD57
:10037000089584B58F7DFBCF8091B0008F778093F7
:10038000B00008958091B0008F7DF9CFCF93DF93B7
:10039000282F30E0F901E255FF4F8491F901E6562C
:1003A000FF4FD491F901EA57FF4FC491CC23A1F03C
:1003B00081110E949D01EC2FF0E0EE0FFF1FE45829
:1003C000FF4FA591B491EC91ED2381E090E009F409
:1003D00080E0DF91CF91089580E090E0FACF1F9305
:1003E000CF93DF93282F30E0F901E255FF4F84913E
:1003F000F901E656FF4FD491F901EA57FF4FC49136
:10040000CC23A9F0162F81110E949D01EC2FF0E062
:10041000EE0FFF1FEE58FF4FA591B4918FB7F894E0
:10042000EC91111108C0D095DE23DC938FBFDF91D2
:10043000CF911F910895DE2BF8CFCF93DF9390E0FB
:10044000FC01E656FF4F24918A579F4FFC0184918F
:100450008823D1F090E0880F991FFC01E859FF4FE5
:10046000A591B491FC01EE58FF4FC591D491611153
:100470000EC09FB7F8948C91E22FE0958E238C9359
:100480002881E223E8839FBFDF91CF9108958FB742
:10049000F894EC91E22BEC938FBFF6CF3FB7F89432
:1004A00080912E0290912F02A0913002B0913102E2
:1004B00026B5A89B05C02F3F19F00196A11DB11DBF
:1004C0003FBFBA2FA92F982F8827BC01CD01620FFB
:1004D000711D811D911D42E0660F771F881F991FB6
:1004E0004A95D1F708958F929F92AF92BF92CF9283
:1004F000DF92EF92FF924B015C010E944E026B0172
:100500007C010E944E026C197D098E099F09683E8C
:10051000734081059105A8F321E0821A9108A10892
:10052000B10888EEC80E83E0D81EE11CF11C8114CE
:100530009104A104B10429F7FF90EF90DF90CF90D0
:10054000BF90AF909F908F900895AF92BF92CF923F
:10055000DF92EF92FF920F931F93CF93DF936C0183
:100560007B018B01040F151FEB015E01AE18BF0864
:10057000C017D10759F06991D601ED91FC91019016
:10058000F081E02DC6010995892B79F7C501DF912E
:10059000CF911F910F91FF90EF90DF90CF90BF9080
:1005A000AF900895FC01538D448D252F30E0842FAA
:1005B00090E0821B930B541710F0CF96089501978B
:1005C0000895FC01918D828D981761F0A28DAE0F78
:1005D000BF2FB11D5D968C91928D9F5F9F73928FFF
:1005E00090E008958FEF9FEF0895FC01918D828D2B
:1005F000981731F0828DE80FF11D858D90E00895F8
:100600008FEF9FEF0895FC01918D228D892F90E04F
:10061000805C9F4F821B91098F739927089582E315
:1006200092E00E94030321E0892B09F420E0822F4D
:10063000089580E090E0892B29F00E940F0381113A
:100640000C9400000895FC01A48DA80FB92FB11DD2
:10065000A35ABF4F2C91848D90E001968F739927F8
:10066000848FA689B7892C93A089B1898C918370D6
:1006700080648C93938D848D981306C00288F389CF
:10068000E02D80818F7D80830895EF92FF920F93FC
:100690001F93CF93DF93EC0181E0888F9B8D8C8D2E
:1006A00098131AC0E889F989808185FF15C09FB722
:1006B000F894EE89FF896083E889F98980818370E5
:1006C000806480839FBF81E090E0DF91CF911F9194
:1006D0000F91FF90EF900895F62E0B8D10E00F5FB5
:1006E0001F4F0F731127E02E8C8D8E110CC00FB68B
:1006F00007FCFACFE889F989808185FFF5CFCE0123
:100700000E942303F1CFEB8DEC0FFD2FF11DE35A77
:10071000FF4FF0829FB7F8940B8FEA89FB898081A5
:100720008062CFCFCF93DF93EC01888D8823B9F01F
:10073000AA89BB89E889F9898C9185FD03C08081EC
:1007400086FD0DC00FB607FCF7CF8C9185FFF2CF69
:10075000808185FFEDCFCE010E942303E9CFDF9199
:10076000CF910895089590E080E00895CF93DF93AE
:10077000EC0160E08E810E94EF0161E08E810E94B9
:10078000EF0160E08E810E94EF018BE891E001971C
:10079000F1F7DF91CF910895CF92DF92EF92FF9220
:1007A0000F931F93CF93DF936C017C0187E0E80EDA
:1007B000F11CD0E0C0E0062F10E0B8010C2E02C002
:1007C000759567950A94E2F76170F70181917F0151
:1007D0000E94EF012196C430D10579F7C601DF915F
:1007E000CF911F910F91FF90EF90DF90CF900C94DD
:1007F000B603CF92DF92EF92FF920F931F93CF93A6
:10080000DF93EC01F62E642F8C810E94EF018D8125
:100810008F3F19F060E00E94EF010F2D10E08F85EF
:1008200084FF25C06E0187E0C80ED11CF12CE12C9D
:10083000B8010E2C02C0759567950A94E2F76170B5
:10084000F60181916F010E94EF01FFEFEF1AFF0A9D
:1008500088E0E816F10461F7CE01DF91CF911F9196
:100860000F91FF90EF90DF90CF900C94B603B801FA
:1008700084E0759567958A95E1F7CE010E94CC03D7
:100880006F2DCE01DF91CF911F910F91FF90EF90CF
:10089000DF90CF900C94CC0340E0682F82E493E08B
:1008A0000C94F90381E00E944C048BE39FE10197D3
:1008B000F1F70895CF93DF93823029F4909151039B
:1008C000986090935103809355031092560380E4EF
:1008D0008093570380E18093580380E58093590308
:1008E00061E0809146030E941D02809147038F3F83
:1008F00019F061E00E941D0261E0809148030E94AE
:100900001D02C2E4D3E09E01225433408091510382
:1009100084FD0BC084E090E021962817390744F449
:1009200061E08E810E941D02EECF88E090E0F4CF5E
:100930008BE39DE00197F1F760E0809146030E9410
:10094000EF0160E0809148030E94EF01809147032E
:100950008F3F19F060E00E94EF018091510384FD08
:1009600034C063E082E493E00E94CC03CBE4D6E49D
:10097000CE010197F1F763E082E493E00E94CC039B
:100980002197F1F763E082E493E00E94CC0383E5D2
:1009900092E00197F1F762E082E493E00E94CC03D9
:1009A0008091510380620E944C0484E08093520342
:1009B0008CE00E944C040E94520482E08093530316
:1009C00086E0DF91CF910C944C0480620E944C042D
:1009D0008BE496E40197F1F78091510380620E94C5
:1009E0004C0483E592E00197F1F780915103806216
:1009F0000E944C04D5CFE0915503E33048F4E15018
:100A0000F0E0EE5BFC4F84898D5F80680C944C04B1
:100A1000E2E0F6CF41E00E94F90381E090E0089522
:100A2000FB0101900020E9F73197AF01461B570BFE
:100A3000DC01ED91FC910280F381E02D09948F920D
:100A40009F92AF92BF920F931F93CF93DF93CDB737
:100A5000DEB7A1970FB6F894DEBF0FBECDBF19A2C7
:100A6000423008F44AE08E010F5D1F4F842E912C16
:100A7000B12CA12CA50194010E941B0FE62FB901F6
:100A8000CA01EA3004F5E05DD801EE938D01232B15
:100A9000242B252B79F790E080E0109729F0BD01F9
:100AA00082E392E00E941005A1960FB6F894DEBF93
:100AB0000FBECDBFDF91CF911F910F91BF90AF902F
:100AC0009F908F900895E95CDFCFCF93DF93BC01B7
:100AD00082E392E00E941005EC016EE171E082E396
:100AE00092E00E9410058C0F9D1FDF91CF91089519
:100AF0004F925F926F927F928F929F92AF92BF922E
:100B0000CF92DF92EF92FF920F931F93CF936B01DF
:100B10007C01742EAC019B010E94060F61E271E022
:100B2000811126C046015701E894B7F82FEF3FEF37
:100B30004FE75FE7C501B4010E94060F81110CC0A9
:100B40002FEF3FEF4FE75FE7C501B4010E943C0D77
:100B500065E271E0181664F02FEF3FEF4FE75FE4B6
:100B6000C701B6010E94940E1816ACF469E271E058
:100B700082E392E0CF911F910F91FF90EF90DF9071
:100B8000CF90BF90AF909F908F907F906F905F902D
:100B90004F900C9410052FEF3FEF4FE75FECC7012C
:100BA000B6010E943C0D87FDE1CF20E030E0A901B5
:100BB000C701B6010E943C0D10E000E087FF0AC0AB
:100BC0006DE282E392E00E9445038C01F7FAF09413
:100BD000F7F8F094C0E060E070E080E09FE37C16FE
:100BE00041F020E030E040E251E40E94410DCF5F4F
:100BF000F6CFA70196010E94D00C2B013C010E9468
:100C0000B30D4B015C014AE00E941F057C01E00E20
:100C1000F11ECC23C1F1C501B4010E94E20D9B017C
:100C2000AC01C301B2010E94CF0C4B015C016EE22A
:100C300082E392E00E944503E80EF91EC15018F1CC
:100C400020E030E040E251E4C501B4010E94990E79
:100C50002B013C010E94B30D4B01B12CA12C4AE0A9
:100C6000C501B4010E941F05E80EF91EC501B401BB
:100C70000E94E20D9B01AC01C301B2010E94CF0CA6
:100C80004B015C01DBCFC701CF911F910F91FF900A
:100C9000EF90DF90CF90BF90AF909F908F907F901C
:100CA0006F905F904F9008950C9410051F920F92D3
:100CB0000FB60F9211242F933F938F939F93AF936F
:100CC000BF9380912A0290912B02A0912C02B091A7
:100CD0002D023091290223E0230F2D3758F501967C
:100CE000A11DB11D2093290280932A0290932B020B
:100CF000A0932C02B0932D0280912E0290912F028E
:100D0000A0913002B09131020196A11DB11D8093D6
:100D10002E0290932F02A0933002B0933102BF9124
:100D2000AF919F918F913F912F910F900FBE0F9098
:100D30001F90189526E8230F0296A11DB11DD2CF52
:100D40001F920F920FB60F9211242F933F934F9340
:100D50005F936F937F938F939F93AF93BF93EF9323
:100D6000FF9382E392E00E942303FF91EF91BF91F2
:100D7000AF919F918F917F916F915F914F913F9133
:100D80002F910F900FBE0F901F9018951F920F92EA
:100D90000FB60F9211242F938F939F93EF93FF938E
:100DA000E0914202F09143028081E0914802F0918B
:100DB000490282FD1BC0908180914B028F5F8F732F
:100DC00020914C02821741F0E0914B02F0E0EE5C82
:100DD000FD4F958F80934B02FF91EF919F918F91E3
:100DE0002F910F900FBE0F901F9018958081F4CF18
:100DF000E2E3F2E01382128288EE93E0A0E0B0E03A
:100E000084839583A683B78384E091E09183808374
:100E100085EC90E09587848784EC90E097878687BF
:100E200080EC90E0918B808B81EC90E0938B828BB7
:100E300082EC90E0958B848B86EC90E0978B868B90
:100E4000118E128E138E148EE2E4F3E0138212825E
:100E500086E191E09183808384E084838FEF8583B2
:100E600085E0868386E0878387E0808788E08187C6
:100E700089E082871386148615861686178681E098
:100E80000E945A04EFECF2E04FEF5FEFBA014083AB
:100E900051836283738310861186128613868FEFC7
:100EA00099ECAAE9BBE3808B918BA28BB38B808FEB
:100EB000918FA28FB38F80A391A3A2A3B3A380A786
:100EC00091A7A2A7B3A780AB91ABA2ABB3AB40AF46
:100ED00051AF62AF73AF8FEF90E0909310038093A8
:100EE0000F034093130350931403609315037093FF
:100EF000160340931B0350931C0360931D037093D0
:100F00001E03109223031092240382E08093340383
:100F10001092350310923603109237031092380363
:100F20001092390310923A0310923B0310923D0342
:100F300010923C0310923F0310923E03109225033F
:100F40000895789484B5826084BD84B5816084BD41
:100F500085B5826085BD85B5816085BD80916E0057
:100F6000816080936E001092810080918100826088
:100F700080938100809181008160809381008091C5
:100F800080008160809380008091B10084608093B4
:100F9000B1008091B00081608093B00080917A00B0
:100FA000846080937A0080917A00826080937A00D6
:100FB00080917A00816080937A0080917A008068C5
:100FC00080937A001092C10061E082E00E941D02CD
:100FD00061E083E00E941D0260E08AE00E941D0241
:100FE00060E08BE00E941D0260E08CE00E941D0228
:100FF000E0914202F091430282E08083E0913E0260
:10100000F0913F021082E0914002F09141028FEC9A
:10101000808310924A02E0914602F091470286E0F6
:101020008083E0914402F091450280818061808359
:10103000E0914402F0914502808188608083E091D4
:101040004402F0914502808180688083E0914402EF
:10105000F091450280818F7D808382E00E945A0456
:101060006DE271E082E493E00E9454060E94FB046A
:101070006FE471E082E493E00E94540600E010E027
:101080008AE00E94C601EC0181E0209709F480E02B
:101090008093280264E670E080E090E00E94730292
:1010A000CD2B09F420C460E083E00E94EF0168ECDE
:1010B00070E080E090E00E9473020E94520466E5B6
:1010C00071E082E493E00E9454060E94FB0465E80C
:1010D00071E082E493E00E94540664EF71E080E0E6
:1010E00090E00E9473028BE00E94C601EC0181E057
:1010F000209709F480E08093270264E670E080E0A6
:1011000090E00E947302CD2B09F0C4C360E083E03D
:101110000E94EF0168EC70E080E090E00E947302B2
:101120000E94520460E671E082E493E00E9454065B
:101130000E94FB0465E871E082E493E00E9454069B
:1011400064EF71E080E090E00E94730261E082E071
:101150000E94EF0168EC70E080E090E00E94730272
:101160000E9452046CE671E082E493E00E9454060F
:1011700064EF71E080E090E00E9473028CE00E94D6
:10118000C601EC0181E0209709F480E080932602FB
:1011900064E670E080E090E00E947302CD2B71F372
:1011A0000E9452046CE771E082E493E00E945406CE
:1011B0000E94FB046EE871E082E493E00E94540612
:1011C00064EF71E080E090E00E9473028AE991E0B0
:1011D0000E94650564E670E080E090E00E94730282
:1011E00084EA91E00E94650564E670E080E090E0AA
:1011F0000E9473028DEB91E00E94650580ED91E005
:101200000E946505D2E011E082E392E00E940303B0
:10121000892BD1F382E392E00E94E102C82F8091F2
:10122000380390913903A0913A03B0913B030196A2
:10123000A11DB11D8093380390933903A0933A0305
:10124000B0933B03C43209F404C3E0913603C532C2
:101250004CF4CA3019F0CD3009F008C3EF3068F013
:1012600000E0CBC0CA32D1F3CC3209F0FFC280918A
:1012700023038C2780932303F1CF90913503F0E073
:10128000EB5DFC4F108200912403002309F49CC104
:1012900020912503822F022E000C990B3FEB320F79
:1012A000363008F01DC1C7978295807F9091260344
:1012B000292F092E000C330B4FEB490F463008F055
:1012C00017C127533109820F90912303891372C1EB
:1012D00000913703002321F280913C0390913D035C
:1012E000019690933D0380933C0380911703909166
:1012F0001803A0911903B0911A03809313039093DC
:101300001403A0931503B093160380911F039091CB
:101310002003A0912103B091220380931B0390939B
:101320001C03A0931D03B0931E03809134038823F4
:1013300009F4E7C0813009F060C08091D302909138
:10134000D402A091D502B091D6028093CF0290939F
:10135000D002A093D102B093D2028091DB0290918F
:10136000DC02A091DD02B091DE028093D70290935F
:10137000D802A093D902B093DA028091E30290914F
:10138000E402A091E502B091E6028093DF0290931F
:10139000E002A093E102B093E2028091EB0290910F
:1013A000EC02A091ED02B091EE028093E7029093DF
:1013B000E802A093E902B093EA028091FB029091C7
:1013C000FC02A091FD02B091FE028093F70290937F
:1013D000F802A093F902B093FA028091030390916E
:1013E0000403A0910503B09106038093FF0290933C
:1013F0000003A0930103B0930203809135038F5F34
:10140000809335031092360381E0CA3209F080E000
:1014100080932403002309F4F7CE8091DF0290919A
:10142000E002A091E102B091E20280932202909347
:101430002302A0932402B09325028091E7029091A9
:10144000E802A091E902B091EA0280931E02909313
:101450001F02A0932002B093210282EF91E00E942C
:1014600065056DEF71E082E392E00E9454066091A1
:1014700022027091230280912402909125020E9401
:10148000E40D2DEB37E346E855E30E94990E48E062
:101490000E9478056EE171E082E392E00E941005FF
:1014A00062E072E082E392E00E94540660911E02C4
:1014B00070911F0280912002909121020E94E40D00
:1014C0002DEB37E346E855E30E94990E48E00E9471
:1014D00078056EE171E082E392E00E9410059FCEF4
:1014E0002156263018F487559109DECEC097DCCE00
:1014F0009156963018F427553109E5CE205331091D
:10150000E2CE8091F3029091F402A091F502B091A5
:10151000F6028093EF029093F002A093F102B09351
:10152000F2028091D3029091D402A091D502B091A1
:10153000D6028093CF029093D002A093D102B093B1
:10154000D2028091E3029091E402A091E502B09171
:10155000E6028093DF029093E002A093E102B09351
:10156000E2028091EB029091EC02A091ED02B09129
:10157000EE028093E7029093E802A093E902B09311
:10158000EA028091110390911203909310038093CB
:101590000F0380910B0390910C03A0910D03B09168
:1015A0000E038093070390930803A0930903B0935D
:1015B0000A0323CF80913E0390913F0301969093BD
:1015C0003F0380933E034CCE91111CC0A5E2B3E0D3
:1015D00046EE51E09D01F90181919F01882309F4B4
:1015E000B2C1FA019191AF018917A9F3ECEEF1E0D4
:1015F0008D91882309F4AAC191918917C9F3D093D9
:101600003403FBCEE0913403E23009F429CE80911B
:101610002503882309F424CE20E2E29FF00111245F
:10162000E92B3197E932F10508F0E7CEE65EF44F99
:101630000C943D0F600B840BA20BBD0BC80B020C6E
:10164000090C130C1E0CFD09FD09FD09FD09FD091E
:10165000FD09FD09FD09FD09FD09FD09FD09FD095A
:10166000FD09FD09FD09FD09FD09FD09FD09FD094A
:10167000FD09FD09600B7E0B840BA20BBD0BC80B93
:10168000E30BEE0B430BE5E2F3E020E030E0A901D1
:10169000F19080ED8F0D8A3008F0ABC0AAE0B0E089
:1016A0000E94430F2F2DFF0C330B440B550B260FBD
:1016B000371F481F591F2053310941095109E8CFED
:1016C0000E948C006093D3027093D4028093D50261
:1016D0009093D6022FB7F89480912A0290912B0212
:1016E000A0912C02B0912D022FBF809317039093ED
:1016F0001803A0931903B0931A037FCE91E08134AD
:1017000009F484C090E082C00E94FE006093E3026E
:101710007093E4028093E5029093E6022FB7F89469
:1017200080912A0290912B02A0912C02B0912D025F
:101730002FBF80931F0390932003A0932103B093A6
:1017400022035BCE833509F08BCD8091E30290912B
:10175000E402A091E502B091E602B095A0959095C3
:1017600081959F4FAF4FBF4F8093E3029093E40268
:10177000A093E502B093E60240CE0E94FE00609383
:10178000EB027093EC028093ED029093EE0235CE63
:10179000873509F065CD8091EB029091EC02A09124
:1017A000ED02B091EE02B095A095909581959F4F76
:1017B000AF4FBF4F8093EB029093EC02A093ED02EA
:1017C000B093EE021ACE0E948C006093FB027093DD
:1017D000FC028093FD029093FE020FCE0E948C00CB
:1017E00060930303709304038093050390930603AF
:1017F00004CE2093DB023093DC024093DD02509351
:10180000DE02FBCD91E081330CF47CCF9093370363
:10181000F4CD85E293E00E94A90C992790931203DE
:1018200080931103EACD0E948C0060930B037093A8
:101830000C0380930D0390930E03DFCD0E948C0068
:101840006093F3027093F4028093F5029093F60292
:10185000D4CD109236031092350310922303D09307
:1018600034031092240310923703CECCEE3040F4B0
:1018700081E08E0F80933603F0E0EB5DFC4FC08378
:10188000809124038111C0CC80912303C827C09389
:101890002303BACC0E94520467E072E082E493E032
:1018A0000E9454060E94FB0465E871E082E493E024
:1018B0000E94540664EF71E080E090E00E947302A1
:1018C00060E082E00E94EF0168EC70E080E090E070
:1018D0000E94730261E083E00E94EF0168EC70E017
:1018E00080E090E0FECB0E94520466E571E082E465
:1018F00093E00E9454060E94FB0460E172E082E4DF
:1019000093E00E94540660E082E00E94EF0168ECE0
:1019100070E080E090E00E94730261E083E00E944A
:10192000EF0168EC70E080E090E00E947302011526
:10193000110509F4A5CB0E940F03882309F4A0CB5D
:101940000E9400009DCB1093340357CD10923403B6
:1019500054CDFC0188279927E89421912032E9F39E
:10196000293010F02E30C8F32B3241F02D3239F4EB
:10197000689404C00E94C70C820F911D21912053CE
:101980002A30C0F31EF4909581959F4F08957AE018
:10199000979F902D879F802D910D11240895505869
:1019A000BB27AA270E94E70C0C945A0E0E944C0EEB
:1019B00038F00E94530E20F039F49F3F19F426F4BA
:1019C0000C94490E0EF4E095E7FB0C94430EE92FBE
:1019D0000E946B0E58F3BA176207730784079507C6
:1019E00020F079F4A6F50C948D0E0EF4E0950B2EF4
:1019F000BA2FA02D0B01B90190010C01CA01A00161
:101A00001124FF27591B99F0593F50F4503E68F1BB
:101A10001A16F040A22F232F342F4427585FF3CFFC
:101A2000469537952795A795F0405395C9F77EF4CD
:101A30001F16BA0B620B730B840BBAF09150A1F016
:101A4000FF0FBB1F661F771F881FC2F70EC0BA0F9C
:101A5000621F731F841F48F4879577956795B79524
:101A6000F7959E3F08F0B0CF9395880F08F099271F
:101A7000EE0F9795879508950E941F0E08F481E058
:101A800008950E94550D0C945A0E0E94530E58F062
:101A90000E944C0E40F029F45F3F29F00C94430E55
:101AA00051110C948E0E0C94490E0E946B0E68F32B
:101AB0009923B1F3552391F3951B550BBB27AA2707
:101AC00062177307840738F09F5F5F4F220F331F41
:101AD000441FAA1FA9F335D00E2E3AF0E0E832D009
:101AE00091505040E695001CCAF72BD0FE2F29D00C
:101AF000660F771F881FBB1F261737074807AB07DE
:101B0000B0E809F0BB0B802DBF01FF2793585F4F52
:101B10003AF09E3F510578F00C94430E0C948E0ED3
:101B20005F3FE4F3983ED4F3869577956795B79534
:101B3000F7959F5FC9F7880F911D9695879597F93F
:101B40000895E1E0660F771F881FBB1F62177307B8
:101B50008407BA0720F0621B730B840BBA0BEE1FCD
:101B600088F7E09508950E94730E88F09F5798F0CB
:101B7000B92F9927B751B0F0E1F0660F771F881F92
:101B8000991F1AF0BA95C9F714C0B13091F00E94AC
:101B90008D0EB1E008950C948D0E672F782F882755
:101BA000B85F39F0B93FCCF3869577956795B395D3
:101BB000D9F73EF490958095709561957F4F8F4F42
:101BC0009F4F0895E89409C097FB3EF49095809547
:101BD000709561957F4F8F4F9F4F9923A9F0F92FF3
:101BE00096E9BB279395F695879577956795B79571
:101BF000F111F8CFFAF4BB0F11F460FF1BC06F5F57
:101C00007F4F8F4F9F4F16C0882311F096E911C068
:101C1000772321F09EE8872F762F05C0662371F089
:101C200096E8862F70E060E02AF09A95660F771F9D
:101C3000881FDAF7880F9695879597F90895990F79
:101C40000008550FAA0BE0E8FEEF16161706E80786
:101C5000F907C0F012161306E407F50798F0621BA7
:101C6000730B840B950B39F40A2661F0232B242B7C
:101C7000252B21F408950A2609F4A140A6958FEF9B
:101C8000811D811D089597F99F6780E870E060E0ED
:101C900008959FEF80EC089500240A941616170605
:101CA00018060906089500240A941216130614064D
:101CB00005060895092E0394000C11F4882352F0B0
:101CC000BB0F40F4BF2B11F460FF04C06F5F7F4F68
:101CD0008F4F9F4F089557FD9058440F551F59F04F
:101CE0005F3F71F04795880F97FB991F61F09F3F09
:101CF00079F087950895121613061406551FF2CF32
:101D00004695F1DF08C0161617061806991FF1CF81
:101D100086957105610508940895E894BB276627A8
:101D20007727CB0197F908950E941F0E08F48FEFD3
:101D300008950E94AC0E0C945A0E0E944C0E38F07E
:101D40000E94530E20F0952311F00C94430E0C9436
:101D5000490E11240C948E0E0E946B0E70F3959F09
:101D6000C1F3950F50E0551F629FF001729FBB2792
:101D7000F00DB11D639FAA27F00DB11DAA1F649F2E
:101D80006627B00DA11D661F829F2227B00DA11DE1
:101D9000621F739FB00DA11D621F839FA00D611D67
:101DA000221F749F3327A00D611D231F849F600D88
:101DB000211D822F762F6A2F11249F5750409AF0B1
:101DC000F1F088234AF0EE0FFF1FBB1F661F771F3D
:101DD000881F91505040A9F79E3F510580F00C9408
:101DE000430E0C948E0E5F3FE4F3983ED4F3869539
:101DF00077956795B795F795E7959F5FC1F7FE2BA8
:101E0000880F911D9695879597F908950E941F0E4A
:101E1000880B990B0895DB018F939F930E94430FCA
:101E2000BF91AF91A29F800D911DA39F900DB29F76
:101E3000900D11240895A1E21A2EAA1BBB1BFD01CF
:101E40000DC0AA1FBB1FEE1FFF1FA217B307E40799
:101E5000F50720F0A21BB30BE40BF50B661F771FF1
:101E6000881F991F1A9469F76095709580959095D1
:101E70009B01AC01BD01CF010895EE0FFF1F05903E
:101E8000F491E02D09940E94560FA59F900DB49FE8
:101E9000900DA49F800D911D11240895B7FF0C94FF
:101EA000430F0E94430F821B930B0895A29FB00122
:101EB000B39FC001A39F700D811D1124911DB29F7E
:101EC000700D811D1124911D0895F894FFCF00001D
:101ED00000004503A502D20292030303E102F502CA
:101EE000000000000A05A502B303B2030D0A006E4C
:101EF000616E00696E66006F766600414343494437
:101F0000454E5420444554454354494F4E20414E7C
:101F1000442050524556454E54494F4E0053595354
:101F200054454D00536561742042656C7400416CEA
:101F3000636F686F6C206E6F740056656869636CC0
:101F400065205374617274656400416363696465FC
:101F50006E742044657465637465640053656E64D3
:101F6000696E67204D73670041542B434D47463DD2
:101F7000310041542B434D47533D222B39313836E4
:101F80003130343934313038220D004163636964B3
:101F9000656E742044657465637465642000706CBC
:101FA0006561736520636865636B206C6F63617442
:101FB000696F6E004750524D4300475047474100FC
:101FC000506F736974696F6E3A20006C61743A00E7
:101FD0006C6F673A00416C636F686F6C20006E6FC6
:0C1FE0007420446574656374656400003F
:107E0000112484B714BE81FFF0D085E080938100F7
:107E100082E08093C00088E18093C10086E0809377
:107E2000C20080E18093C4008EE0C9D0259A86E02C
:107E300020E33CEF91E0309385002093840096BBD3
:107E4000B09BFECF1D9AA8958150A9F7CC24DD24C4
:107E500088248394B5E0AB2EA1E19A2EF3E0BF2EE7
:107E6000A2D0813461F49FD0082FAFD0023811F036
:107E7000013811F484E001C083E08DD089C08234E0
:107E800011F484E103C0853419F485E0A6D080C0E4
:107E9000853579F488D0E82EFF2485D0082F10E0AE
:107EA000102F00270E291F29000F111F8ED06801E7
:107EB0006FC0863521F484E090D080E0DECF843638
:107EC00009F040C070D06FD0082F6DD080E0C81688
:107ED00080E7D80618F4F601B7BEE895C0E0D1E017
:107EE00062D089930C17E1F7F0E0CF16F0E7DF06D8
:107EF00018F0F601B7BEE89568D007B600FCFDCFD4
:107F0000A601A0E0B1E02C9130E011968C91119780
:107F100090E0982F8827822B932B1296FA010C0160
:107F200087BEE89511244E5F5F4FF1E0A038BF0790
:107F300051F7F601A7BEE89507B600FCFDCF97BE46
:107F4000E89526C08437B1F42ED02DD0F82E2BD052
:107F50003CD0F601EF2C8F010F5F1F4F84911BD097
:107F6000EA94F801C1F70894C11CD11CFA94CF0C13
:107F7000D11C0EC0853739F428D08EE10CD085E9AC
:107F80000AD08FE07ACF813511F488E018D01DD067
:107F900080E101D065CF982F8091C00085FFFCCF94
:107FA0009093C60008958091C00087FFFCCF809118
:107FB000C00084FD01C0A8958091C6000895E0E648
:107FC000F0E098E1908380830895EDDF803219F02E
:107FD00088E0F5DFFFCF84E1DECF1F93182FE3DFCA
:107FE0001150E9F7F2DF1F91089580E0E8DFEE27F6
:047FF000FF270994CA
:027FFE00040479
:00000001FF
